{
    "contractName": "nftStaking",
    "abi": [
        {
            "inputs": [],
            "stateMutability": "nonpayable",
            "type": "constructor"
        },
        {
            "anonymous": false,
            "inputs": [
                {
                    "indexed": true,
                    "internalType": "address",
                    "name": "previousOwner",
                    "type": "address"
                },
                {
                    "indexed": true,
                    "internalType": "address",
                    "name": "newOwner",
                    "type": "address"
                }
            ],
            "name": "OwnershipTransferred",
            "type": "event"
        },
        {
            "anonymous": false,
            "inputs": [
                {
                    "indexed": false,
                    "internalType": "address",
                    "name": "",
                    "type": "address"
                }
            ],
            "name": "newNftCollection",
            "type": "event"
        },
        {
            "inputs": [
                {
                    "internalType": "address",
                    "name": "_newCollectionAddress",
                    "type": "address"
                },
                {
                    "internalType": "string",
                    "name": "_newCollectionName",
                    "type": "string"
                },
                {
                    "internalType": "address",
                    "name": "_rewardsTokenAddress",
                    "type": "address"
                },
                {
                    "internalType": "string",
                    "name": "_rewardsTokenName",
                    "type": "string"
                },
                {
                    "internalType": "uint256",
                    "name": "_amountOfTokens",
                    "type": "uint256"
                },
                {
                    "internalType": "uint256",
                    "name": "_amountOfTokensGeneratedPerDay",
                    "type": "uint256"
                }
            ],
            "name": "addNewNftCollection",
            "outputs": [],
            "stateMutability": "nonpayable",
            "type": "function"
        },
        {
            "inputs": [],
            "name": "owner",
            "outputs": [
                {
                    "internalType": "address",
                    "name": "",
                    "type": "address"
                }
            ],
            "stateMutability": "view",
            "type": "function"
        },
        {
            "inputs": [],
            "name": "renounceOwnership",
            "outputs": [],
            "stateMutability": "nonpayable",
            "type": "function"
        },
        {
            "inputs": [
                {
                    "internalType": "address",
                    "name": "newOwner",
                    "type": "address"
                }
            ],
            "name": "transferOwnership",
            "outputs": [],
            "stateMutability": "nonpayable",
            "type": "function"
        }
    ],
    "bytecode": "608060405234801561001057600080fd5b5061001a3361001f565b61006f565b600080546001600160a01b038381166001600160a01b0319831681178455604051919092169283917f8be0079c531659141344cd1fd0a4f28419497f9722a3daafe3b4186f6b6457e09190a35050565b61099c8061007e6000396000f3fe608060405234801561001057600080fd5b506004361061004c5760003560e01c8063715018a6146100515780638da5cb5b1461005b578063de7afb531461007a578063f2fde38b1461008d575b600080fd5b6100596100a0565b005b600054604080516001600160a01b039092168252519081900360200190f35b6100596100883660046107be565b6100df565b61005961009b366004610855565b61057b565b6000546001600160a01b031633146100d35760405162461bcd60e51b81526004016100ca90610877565b60405180910390fd5b6100dd6000610616565b565b6000546001600160a01b031633146101095760405162461bcd60e51b81526004016100ca90610877565b6001600160a01b0386161580159061012957506001600160a01b03841615155b6101ac5760405162461bcd60e51b815260206004820152604860248201527f54686520636f6c6c656374696f6e20616e64207468652052657761726473205460448201527f6f6b656e20416464726573732063616e206e6f7420626520746f207468652030606482015267206164647265737360c01b608482015260a4016100ca565b60408051600081526020810180835281519020916101cc918891016108ac565b60405160208183030381529060405280519060200120141580156102245750604080516000815260208101808352815190209161020b918691016108ac565b6040516020818303038152906040528051906020012014155b61028c5760405162461bcd60e51b815260206004820152603360248201527f436f6c6c656374696f6e20616e64205265776172647320546f6b656e204e616d604482015272329031b0b7103737ba1031329032b6b83a3c9760691b60648201526084016100ca565b600082116102ee5760405162461bcd60e51b815260206004820152602960248201527f54686520616d6f756e74206f66205265776172647320746f6b656e73206d75736044820152683a103132901f10181760b91b60648201526084016100ca565b6102f881836108e7565b156103795760405162461bcd60e51b815260206004820152604560248201527f5f616d6f756e744f66546f6b656e73206d7573742062652061206d756c74697060448201527f6c65206f66205f616d6f756e744f66546f6b656e7347656e6572617465645065606482015264392230bc9760d91b608482015260a4016100ca565b6040516323b872dd60e01b8152336004820152306024820152604481018390526001600160a01b038516906323b872dd906064016020604051808303816000875af11580156103cc573d6000803e3d6000fd5b505050506040513d601f19601f820116820180604052508101906103f09190610909565b506040805160e0810182526001600160a01b0380891682528681166020808401918252938301898152606084018890526080840187905260a08401869052600060c085018190526001805480820182559152845160079091027fb10e2d527612073b26eecdfd717e6a320cf44b4afac2b0732d9fcbe2b7fa0cf6810180549286166001600160a01b031993841617815593517fb10e2d527612073b26eecdfd717e6a320cf44b4afac2b0732d9fcbe2b7fa0cf78201805491909616921691909117909355518051939491936104ec937fb10e2d527612073b26eecdfd717e6a320cf44b4afac2b0732d9fcbe2b7fa0cf801929190910190610666565b5060608201518051610508916003840191602090910190610666565b506080820151600482015560a0820151600582015560c0909101516006909101805460ff19169115159190911790556040516001600160a01b03871681527fb4dbee4f0d02a902550c4349777753e35c3576129d98ccf008b857ecc1d98ae09060200160405180910390a1505050505050565b6000546001600160a01b031633146105a55760405162461bcd60e51b81526004016100ca90610877565b6001600160a01b03811661060a5760405162461bcd60e51b815260206004820152602660248201527f4f776e61626c653a206e6577206f776e657220697320746865207a65726f206160448201526564647265737360d01b60648201526084016100ca565b61061381610616565b50565b600080546001600160a01b038381166001600160a01b0319831681178455604051919092169283917f8be0079c531659141344cd1fd0a4f28419497f9722a3daafe3b4186f6b6457e09190a35050565b8280546106729061092b565b90600052602060002090601f01602090048101928261069457600085556106da565b82601f106106ad57805160ff19168380011785556106da565b828001600101855582156106da579182015b828111156106da5782518255916020019190600101906106bf565b506106e69291506106ea565b5090565b5b808211156106e657600081556001016106eb565b80356001600160a01b038116811461071657600080fd5b919050565b634e487b7160e01b600052604160045260246000fd5b600082601f83011261074257600080fd5b813567ffffffffffffffff8082111561075d5761075d61071b565b604051601f8301601f19908116603f011681019082821181831017156107855761078561071b565b8160405283815286602085880101111561079e57600080fd5b836020870160208301376000602085830101528094505050505092915050565b60008060008060008060c087890312156107d757600080fd5b6107e0876106ff565b9550602087013567ffffffffffffffff808211156107fd57600080fd5b6108098a838b01610731565b965061081760408a016106ff565b9550606089013591508082111561082d57600080fd5b5061083a89828a01610731565b9350506080870135915060a087013590509295509295509295565b60006020828403121561086757600080fd5b610870826106ff565b9392505050565b6020808252818101527f4f776e61626c653a2063616c6c6572206973206e6f7420746865206f776e6572604082015260600190565b6000825160005b818110156108cd57602081860181015185830152016108b3565b818111156108dc576000828501525b509190910192915050565b60008261090457634e487b7160e01b600052601260045260246000fd5b500690565b60006020828403121561091b57600080fd5b8151801515811461087057600080fd5b600181811c9082168061093f57607f821691505b6020821081141561096057634e487b7160e01b600052602260045260246000fd5b5091905056fea2646970667358221220108e9db5069bae5a1fea1110c9fd77c62444f6665c5c2c07ec29418e6f28f9d164736f6c634300080b0033",
    "sourcePath": "/Volumes/Disco D/Projects/Blockchain/blockchain-nfts-staking-dashboard/contracts/piggy.sol",
    "compiler": {
        "name": "solc",
        "version": "0.8.11+commit.d7f03943"
    },
    "functionHashes": {
        "addNewNftCollection(address,string,address,string,uint256,uint256)": "de7afb53",
        "owner()": "8da5cb5b",
        "renounceOwnership()": "715018a6",
        "transferOwnership(address)": "f2fde38b"
    },
    "gasEstimates": {
        "creation": {
            "codeDepositCost": "492000",
            "executionCost": "26365",
            "totalCost": "518365"
        },
        "external": {
            "addNewNftCollection(address,string,address,string,uint256,uint256)": "infinite",
            "owner()": "2292",
            "renounceOwnership()": "28092",
            "transferOwnership(address)": "28353"
        }
    }
}